S02700004F6E2D44656D616E642054726166666963206C696768742050726F6A6563742E73726563BC
S11300000C942A000C9453010C943C000C943C0076
S11300100C943C000C943C000C943C000C943C006C
S11300200C943C000C943C000C943C000C941C017B
S11300300C943C000C943C000C943C000C943C004C
S11300400C943C000C943C000C943C000C943C003C
S11300500C943C0011241FBECFE5D8E0DEBFCDBF19
S113006020E0A0E6B0E001C01D92A536B207E1F79A
S11300700E948D010C948E030C94000041E061E415
S113008080E00E94920141E061E481E00E949201DB
S113009041E061E482E00E94920141E062E480E098
S11300A00E94920141E062E481E00E94920141E0F9
S11300B062E482E00E94920164E482E00E947E0194
S11300C0789489B7816089BF85B78E7F85BF85B7EE
S11300D0826085BF8BB780648BBF6CE070E080E08A
S11300E00E94200384E00E944803089580916400E4
S11300F0823061F128F4882349F08130A1F048C0AE
S1130100833089F1843009F441C042C061E480E065
S11301100E94820161E481E00E94860161E482E040
S11301200E94860135C061E480E00E9486018091CE
S11301306100833030F061E481E00E948A01109212
S1130140610061E482E00E94860122C061E480E0F3
S11301500E94860161E481E00E94860161E482E0FC
S11301600E94820115C061E480E00E9486018091B2
S11301706100833030F061E481E00E948A011092D2
S1130180610061E482E00E94860102C01092640072
S113019080916300823061F128F4882349F0813032
S11301A0A1F0A4CF833089F1843009F442C09ECFFA
S11301B062E480E00E94860162E481E00E9486019C
S11301C062E482E00E94820191CF62E480E00E94B6
S11301D0860180916000833030F062E481E00E9407
S11301E08A011092600062E482E00E9486017ECF60
S11301F062E480E00E94820162E481E00E94860160
S113020062E482E00E94860171CF62E480E00E9491
S1130210860162E482E00E9486018091600083305E
S113022008F464CF62E481E00E948A0110926000C5
S11302305DCF109263005ACF1F920F920FB60F92A8
S113024011248F939F93809162008F5F809362004B
S1130250833180F490916400913011F0933051F423
S1130260909161009F5F90936100909160009F5F07
S113027090936000833180F0809164008F5F80935D
S11302806400809163008F5F80936300109262002A
S113029010926100109260009F918F910F900FBE99
S11302A00F901F9018951F920F920FB60F92112462
S11302B08F9380916400882311F0833059F481E096
S11302C08093640080936300109262001092610036
S11302D01092600080916400823051F48093640035
S11302E0809363001092620010926100109260008B
S11302F08F910F900FBE0F901F90189540E00E94B1
S11303009201089541E00E943402089540E00E9461
S1130310340208950E94D60208950E943E000E946D
S11303207600FDCF883008F093C0623469F118F488
S1130330613441F08FC0633409F448C0643409F473
S113034066C088C041110FC04AB321E030E0B90152
S113035002C0660F771F8A95E2F7CB01809584234C
S11303608ABB80E00895413009F076C04AB321E0A9
S113037030E0B90102C0660F771F8A95E2F7CB011E
S1130380842B8ABB80E0089541110FC047B321E05C
S113039030E0B90102C0660F771F8A95E2F7CB01FE
S11303A08095842387BB80E00895413009F056C0CE
S11303B047B321E030E0B90102C0660F771F8A9588
S11303C0E2F7CB01842B87BB80E0089541110FC075
S11303D044B321E030E0B90102C0660F771F8A956B
S11303E0E2F7CB018095842384BB80E008954130FB
S11303F0B9F544B321E030E0B90102C0660F771FBC
S11304008A95E2F7CB01842B84BB80E008954111E7
S11304100FC041B321E030E0B90102C0660F771F7D
S11304208A95E2F7CB018095842381BB80E008950F
S11304304130C1F441B321E030E0B90102C0660F9C
S1130440771F8A95E2F7CB01842B81BB80E0089566
S113045082E0089581E0089583E0089583E008959B
S113046083E0089583E00895883008F093C06234EF
S113047069F118F4613441F08FC0633409F448C061
S1130480643409F466C088C041110FC04BB321E045
S113049030E0B90102C0660F771F8A95E2F7CB01FD
S11304A0809584238BBB80E00895413009F076C0A9
S11304B04BB321E030E0B90102C0660F771F8A9583
S11304C0E2F7CB01842B8BBB80E0089541110FC070
S11304D048B321E030E0B90102C0660F771F8A9566
S11304E0E2F7CB018095842388BB80E008954130F6
S11304F009F056C048B321E030E0B90102C0660FEC
S1130500771F8A95E2F7CB01842B88BB80E008959E
S113051041110FC045B321E030E0B90102C0660FBC
S1130520771F8A95E2F7CB018095842385BB80E011
S113053008954130B9F545B321E030E0B90102C076
S1130540660F771F8A95E2F7CB01842B85BB80E089
S1130550089541110FC042B321E030E0B90102C057
S1130560660F771F8A95E2F7CB018095842382BBBF
S113057080E008954130C1F442B321E030E0B90194
S113058002C0660F771F8A95E2F7CB01842B82BBEA
S113059080E0089582E0089581E0089584E008955C
S11305A084E0089584E0089584E00895883008F094
S11305B043C06234B9F018F4613431F03FC063349D
S11305C0F9F0643459F13AC04BB321E030E0B90199
S11305D002C0660F771F8A95E2F7CB0184278BBB95
S11305E080E0089548B321E030E0B90102C0660F0D
S11305F0771F8A95E2F7CB01842788BB80E00895B2
S113060045B321E030E0B90102C0660F771F8A9537
S1130610E2F7CB01842785BB80E0089542B321E053
S113062030E0B90102C0660F771F8A95E2F7CB016B
S1130630842782BB80E0089582E0089581E00895D4
S1130640813069F028F0823089F08330B1F01EC027
S113065083B78F7B83BF83B7877F83BF14C083B780
S1130660806483BF83B7877F83BF0DC083B78F7BCD
S113067083BF83B7886083BF06C083B7806483BFAA
S113068083B7886083BF62BF80E0089581E00895E6
S1130690823009F128F4882341F0813089F03CC08C
S11306A0833021F1843069F137C083B7816083BF1F
S11306B083B78D7F83BF83B78B7F83BF80E008952B
S11306C083B78E7F83BF83B7826083BF83B78B7FFB
S11306D083BF80E0089583B7816083BF83B782605E
S11306E083BF83B78B7F83BF80E0089583B78E7FFA
S11306F083BF83B78D7F83BF83B7846083BF80E06C
S1130700089583B7816083BF83B78D7F83BF83B729
S1130710846083BF80E0089582E00895F894FFCF59
S9030000FC
